{
  "_format": "hh-sol-artifact-1",
  "contractName": "DynamicSvgNft",
  "sourceName": "contracts/DynamicSvgNft.sol",
  "abi": [
    {
      "inputs": [
        {
          "internalType": "address",
          "name": "priceFeedAddress",
          "type": "address"
        },
        {
          "internalType": "string",
          "name": "lowSvg",
          "type": "string"
        },
        {
          "internalType": "string",
          "name": "highSvg",
          "type": "string"
        }
      ],
      "stateMutability": "nonpayable",
      "type": "constructor"
    },
    {
      "anonymous": false,
      "inputs": [
        {
          "indexed": true,
          "internalType": "address",
          "name": "owner",
          "type": "address"
        },
        {
          "indexed": true,
          "internalType": "address",
          "name": "approved",
          "type": "address"
        },
        {
          "indexed": true,
          "internalType": "uint256",
          "name": "tokenId",
          "type": "uint256"
        }
      ],
      "name": "Approval",
      "type": "event"
    },
    {
      "anonymous": false,
      "inputs": [
        {
          "indexed": true,
          "internalType": "address",
          "name": "owner",
          "type": "address"
        },
        {
          "indexed": true,
          "internalType": "address",
          "name": "operator",
          "type": "address"
        },
        {
          "indexed": false,
          "internalType": "bool",
          "name": "approved",
          "type": "bool"
        }
      ],
      "name": "ApprovalForAll",
      "type": "event"
    },
    {
      "anonymous": false,
      "inputs": [
        {
          "indexed": true,
          "internalType": "uint256",
          "name": "tokenId",
          "type": "uint256"
        },
        {
          "indexed": false,
          "internalType": "int256",
          "name": "highValue",
          "type": "int256"
        }
      ],
      "name": "CreatedNFT",
      "type": "event"
    },
    {
      "anonymous": false,
      "inputs": [
        {
          "indexed": true,
          "internalType": "address",
          "name": "from",
          "type": "address"
        },
        {
          "indexed": true,
          "internalType": "address",
          "name": "to",
          "type": "address"
        },
        {
          "indexed": true,
          "internalType": "uint256",
          "name": "tokenId",
          "type": "uint256"
        }
      ],
      "name": "Transfer",
      "type": "event"
    },
    {
      "inputs": [
        {
          "internalType": "address",
          "name": "to",
          "type": "address"
        },
        {
          "internalType": "uint256",
          "name": "tokenId",
          "type": "uint256"
        }
      ],
      "name": "approve",
      "outputs": [],
      "stateMutability": "nonpayable",
      "type": "function"
    },
    {
      "inputs": [
        {
          "internalType": "address",
          "name": "owner",
          "type": "address"
        }
      ],
      "name": "balanceOf",
      "outputs": [
        {
          "internalType": "uint256",
          "name": "",
          "type": "uint256"
        }
      ],
      "stateMutability": "view",
      "type": "function"
    },
    {
      "inputs": [
        {
          "internalType": "uint256",
          "name": "tokenId",
          "type": "uint256"
        }
      ],
      "name": "getApproved",
      "outputs": [
        {
          "internalType": "address",
          "name": "",
          "type": "address"
        }
      ],
      "stateMutability": "view",
      "type": "function"
    },
    {
      "inputs": [
        {
          "internalType": "address",
          "name": "owner",
          "type": "address"
        },
        {
          "internalType": "address",
          "name": "operator",
          "type": "address"
        }
      ],
      "name": "isApprovedForAll",
      "outputs": [
        {
          "internalType": "bool",
          "name": "",
          "type": "bool"
        }
      ],
      "stateMutability": "view",
      "type": "function"
    },
    {
      "inputs": [
        {
          "internalType": "int256",
          "name": "highValue",
          "type": "int256"
        }
      ],
      "name": "mintNft",
      "outputs": [],
      "stateMutability": "nonpayable",
      "type": "function"
    },
    {
      "inputs": [],
      "name": "name",
      "outputs": [
        {
          "internalType": "string",
          "name": "",
          "type": "string"
        }
      ],
      "stateMutability": "view",
      "type": "function"
    },
    {
      "inputs": [
        {
          "internalType": "uint256",
          "name": "tokenId",
          "type": "uint256"
        }
      ],
      "name": "ownerOf",
      "outputs": [
        {
          "internalType": "address",
          "name": "",
          "type": "address"
        }
      ],
      "stateMutability": "view",
      "type": "function"
    },
    {
      "inputs": [
        {
          "internalType": "uint256",
          "name": "",
          "type": "uint256"
        }
      ],
      "name": "s_tokenIdToHighValue",
      "outputs": [
        {
          "internalType": "int256",
          "name": "",
          "type": "int256"
        }
      ],
      "stateMutability": "view",
      "type": "function"
    },
    {
      "inputs": [
        {
          "internalType": "address",
          "name": "from",
          "type": "address"
        },
        {
          "internalType": "address",
          "name": "to",
          "type": "address"
        },
        {
          "internalType": "uint256",
          "name": "tokenId",
          "type": "uint256"
        }
      ],
      "name": "safeTransferFrom",
      "outputs": [],
      "stateMutability": "nonpayable",
      "type": "function"
    },
    {
      "inputs": [
        {
          "internalType": "address",
          "name": "from",
          "type": "address"
        },
        {
          "internalType": "address",
          "name": "to",
          "type": "address"
        },
        {
          "internalType": "uint256",
          "name": "tokenId",
          "type": "uint256"
        },
        {
          "internalType": "bytes",
          "name": "data",
          "type": "bytes"
        }
      ],
      "name": "safeTransferFrom",
      "outputs": [],
      "stateMutability": "nonpayable",
      "type": "function"
    },
    {
      "inputs": [
        {
          "internalType": "address",
          "name": "operator",
          "type": "address"
        },
        {
          "internalType": "bool",
          "name": "approved",
          "type": "bool"
        }
      ],
      "name": "setApprovalForAll",
      "outputs": [],
      "stateMutability": "nonpayable",
      "type": "function"
    },
    {
      "inputs": [
        {
          "internalType": "bytes4",
          "name": "interfaceId",
          "type": "bytes4"
        }
      ],
      "name": "supportsInterface",
      "outputs": [
        {
          "internalType": "bool",
          "name": "",
          "type": "bool"
        }
      ],
      "stateMutability": "view",
      "type": "function"
    },
    {
      "inputs": [
        {
          "internalType": "string",
          "name": "svg",
          "type": "string"
        }
      ],
      "name": "svgToImageURI",
      "outputs": [
        {
          "internalType": "string",
          "name": "",
          "type": "string"
        }
      ],
      "stateMutability": "pure",
      "type": "function"
    },
    {
      "inputs": [],
      "name": "symbol",
      "outputs": [
        {
          "internalType": "string",
          "name": "",
          "type": "string"
        }
      ],
      "stateMutability": "view",
      "type": "function"
    },
    {
      "inputs": [
        {
          "internalType": "uint256",
          "name": "tokenId",
          "type": "uint256"
        }
      ],
      "name": "tokenURI",
      "outputs": [
        {
          "internalType": "string",
          "name": "",
          "type": "string"
        }
      ],
      "stateMutability": "view",
      "type": "function"
    },
    {
      "inputs": [
        {
          "internalType": "address",
          "name": "from",
          "type": "address"
        },
        {
          "internalType": "address",
          "name": "to",
          "type": "address"
        },
        {
          "internalType": "uint256",
          "name": "tokenId",
          "type": "uint256"
        }
      ],
      "name": "transferFrom",
      "outputs": [],
      "stateMutability": "nonpayable",
      "type": "function"
    }
  ],
  "bytecode": "0x60a06040523480156200001157600080fd5b50604051620037a4380380620037a483398181016040528101906200003791906200064f565b6040518060400160405280600d81526020017f44796e616d69635376674e6674000000000000000000000000000000000000008152506040518060400160405280600381526020017f44534e00000000000000000000000000000000000000000000000000000000008152508160009080519060200190620000bb9291906200039d565b508060019080519060200190620000d49291906200039d565b5050506000600681905550620000f0826200017160201b60201c565b60079080519060200190620001079291906200039d565b5062000119816200017160201b60201c565b60089080519060200190620001309291906200039d565b508273ffffffffffffffffffffffffffffffffffffffff1660808173ffffffffffffffffffffffffffffffffffffffff1660601b815250505050506200093a565b60606000620001ac836040516020016200018c919062000736565b6040516020818303038152906040526200020f60201b62000d6f1760201c565b90506040518060400160405280601a81526020017f646174613a696d6167652f7376672b786d6c3b6261736536342c00000000000081525081604051602001620001f89291906200074f565b604051602081830303815290604052915050919050565b6060600082511415620002345760405180602001604052806000815250905062000398565b6000604051806060016040528060408152602001620037646040913990506000600360028551620002669190620007b0565b6200027291906200083c565b600462000280919062000874565b90506000602082620002939190620007b0565b67ffffffffffffffff811115620002af57620002ae620004e1565b5b6040519080825280601f01601f191660200182016040528015620002e25781602001600182028036833780820191505090505b509050818152600183018586518101602084015b8183101562000353576003830192508251603f8160121c168501518253600182019150603f81600c1c168501518253600182019150603f8160061c168501518253600182019150603f8116850151825360018201915050620002f6565b60038951066001811462000370576002811462000381576200038c565b613d3d60f01b60028303526200038c565b603d60f81b60018303525b50505050508093505050505b919050565b828054620003ab9062000904565b90600052602060002090601f016020900481019282620003cf57600085556200041b565b82601f10620003ea57805160ff19168380011785556200041b565b828001600101855582156200041b579182015b828111156200041a578251825591602001919060010190620003fd565b5b5090506200042a91906200042e565b5090565b5b80821115620004495760008160009055506001016200042f565b5090565b6000604051905090565b600080fd5b600080fd5b600073ffffffffffffffffffffffffffffffffffffffff82169050919050565b60006200048e8262000461565b9050919050565b620004a08162000481565b8114620004ac57600080fd5b50565b600081519050620004c08162000495565b92915050565b600080fd5b600080fd5b6000601f19601f8301169050919050565b7f4e487b7100000000000000000000000000000000000000000000000000000000600052604160045260246000fd5b6200051b82620004d0565b810181811067ffffffffffffffff821117156200053d576200053c620004e1565b5b80604052505050565b6000620005526200044d565b905062000560828262000510565b919050565b600067ffffffffffffffff821115620005835762000582620004e1565b5b6200058e82620004d0565b9050602081019050919050565b60005b83811015620005bb5780820151818401526020810190506200059e565b83811115620005cb576000848401525b50505050565b6000620005e8620005e28462000565565b62000546565b905082815260208101848484011115620006075762000606620004cb565b5b620006148482856200059b565b509392505050565b600082601f830112620006345762000633620004c6565b5b815162000646848260208601620005d1565b91505092915050565b6000806000606084860312156200066b576200066a62000457565b5b60006200067b86828701620004af565b935050602084015167ffffffffffffffff8111156200069f576200069e6200045c565b5b620006ad868287016200061c565b925050604084015167ffffffffffffffff811115620006d157620006d06200045c565b5b620006df868287016200061c565b9150509250925092565b600081519050919050565b600081905092915050565b60006200070c82620006e9565b620007188185620006f4565b93506200072a8185602086016200059b565b80840191505092915050565b6000620007448284620006ff565b915081905092915050565b60006200075d8285620006ff565b91506200076b8284620006ff565b91508190509392505050565b6000819050919050565b7f4e487b7100000000000000000000000000000000000000000000000000000000600052601160045260246000fd5b6000620007bd8262000777565b9150620007ca8362000777565b9250827fffffffffffffffffffffffffffffffffffffffffffffffffffffffffffffffff0382111562000802576200080162000781565b5b828201905092915050565b7f4e487b7100000000000000000000000000000000000000000000000000000000600052601260045260246000fd5b6000620008498262000777565b9150620008568362000777565b9250826200086957620008686200080d565b5b828204905092915050565b6000620008818262000777565b91506200088e8362000777565b9250817fffffffffffffffffffffffffffffffffffffffffffffffffffffffffffffffff0483118215151615620008ca57620008c962000781565b5b828202905092915050565b7f4e487b7100000000000000000000000000000000000000000000000000000000600052602260045260246000fd5b600060028204905060018216806200091d57607f821691505b60208210811415620009345762000933620008d5565b5b50919050565b60805160601c612e0b620009596000396000610a880152612e0b6000f3fe608060405234801561001057600080fd5b50600436106101005760003560e01c80636352211e11610097578063b88d4fde11610066578063b88d4fde146102bd578063c87b56dd146102d9578063e425aded14610309578063e985e9c51461033957610100565b80636352211e1461022357806370a082311461025357806395d89b4114610283578063a22cb465146102a157610100565b80631e930812116100d35780631e9308121461019f57806323b872dd146101bb57806330d871c6146101d757806342842e0e1461020757610100565b806301ffc9a71461010557806306fdde0314610135578063081812fc14610153578063095ea7b314610183575b600080fd5b61011f600480360381019061011a9190611a4f565b610369565b60405161012c9190611a97565b60405180910390f35b61013d61044b565b60405161014a9190611b4b565b60405180910390f35b61016d60048036038101906101689190611ba3565b6104dd565b60405161017a9190611c11565b60405180910390f35b61019d60048036038101906101989190611c58565b610523565b005b6101b960048036038101906101b49190611cce565b61063b565b005b6101d560048036038101906101d09190611cfb565b6106b9565b005b6101f160048036038101906101ec9190611e83565b610719565b6040516101fe9190611b4b565b60405180910390f35b610221600480360381019061021c9190611cfb565b6107a6565b005b61023d60048036038101906102389190611ba3565b6107c6565b60405161024a9190611c11565b60405180910390f35b61026d60048036038101906102689190611ecc565b610878565b60405161027a9190611f08565b60405180910390f35b61028b610930565b6040516102989190611b4b565b60405180910390f35b6102bb60048036038101906102b69190611f4f565b6109c2565b005b6102d760048036038101906102d29190612030565b6109d8565b005b6102f360048036038101906102ee9190611ba3565b610a3a565b6040516103009190611b4b565b60405180910390f35b610323600480360381019061031e9190611ba3565b610cc3565b60405161033091906120c2565b60405180910390f35b610353600480360381019061034e91906120dd565b610cdb565b6040516103609190611a97565b60405180910390f35b60007f80ac58cd000000000000000000000000000000000000000000000000000000007bffffffffffffffffffffffffffffffffffffffffffffffffffffffff1916827bffffffffffffffffffffffffffffffffffffffffffffffffffffffff1916148061043457507f5b5e139f000000000000000000000000000000000000000000000000000000007bffffffffffffffffffffffffffffffffffffffffffffffffffffffff1916827bffffffffffffffffffffffffffffffffffffffffffffffffffffffff1916145b80610444575061044382610ee8565b5b9050919050565b60606000805461045a9061214c565b80601f01602080910402602001604051908101604052809291908181526020018280546104869061214c565b80156104d35780601f106104a8576101008083540402835291602001916104d3565b820191906000526020600020905b8154815290600101906020018083116104b657829003601f168201915b5050505050905090565b60006104e882610f52565b6004600083815260200190815260200160002060009054906101000a900473ffffffffffffffffffffffffffffffffffffffff169050919050565b600061052e826107c6565b90508073ffffffffffffffffffffffffffffffffffffffff168373ffffffffffffffffffffffffffffffffffffffff16141561059f576040517f08c379a0000000000000000000000000000000000000000000000000000000008152600401610596906121f0565b60405180910390fd5b8073ffffffffffffffffffffffffffffffffffffffff166105be610f9d565b73ffffffffffffffffffffffffffffffffffffffff1614806105ed57506105ec816105e7610f9d565b610cdb565b5b61062c576040517f08c379a000000000000000000000000000000000000000000000000000000000815260040161062390612282565b60405180910390fd5b6106368383610fa5565b505050565b80600960006006548152602001908152602001600020819055506006546006600082825461066991906122d1565b9250508190555061067c3360065461105e565b6006547f882d3b5a729a8bb95cf6c0083c99b42ecd9637123d4425bd7b768877fd8af8b0826040516106ae91906120c2565b60405180910390a250565b6106ca6106c4610f9d565b8261107c565b610709576040517f08c379a000000000000000000000000000000000000000000000000000000000815260040161070090612399565b60405180910390fd5b610714838383611111565b505050565b606060006107458360405160200161073191906123f5565b604051602081830303815290604052610d6f565b90506040518060400160405280601a81526020017f646174613a696d6167652f7376672b786d6c3b6261736536342c0000000000008152508160405160200161078f92919061240c565b604051602081830303815290604052915050919050565b6107c1838383604051806020016040528060008152506109d8565b505050565b6000806002600084815260200190815260200160002060009054906101000a900473ffffffffffffffffffffffffffffffffffffffff169050600073ffffffffffffffffffffffffffffffffffffffff168173ffffffffffffffffffffffffffffffffffffffff16141561086f576040517f08c379a00000000000000000000000000000000000000000000000000000000081526004016108669061247c565b60405180910390fd5b80915050919050565b60008073ffffffffffffffffffffffffffffffffffffffff168273ffffffffffffffffffffffffffffffffffffffff1614156108e9576040517f08c379a00000000000000000000000000000000000000000000000000000000081526004016108e09061250e565b60405180910390fd5b600360008373ffffffffffffffffffffffffffffffffffffffff1673ffffffffffffffffffffffffffffffffffffffff168152602001908152602001600020549050919050565b60606001805461093f9061214c565b80601f016020809104026020016040519081016040528092919081815260200182805461096b9061214c565b80156109b85780601f1061098d576101008083540402835291602001916109b8565b820191906000526020600020905b81548152906001019060200180831161099b57829003601f168201915b5050505050905090565b6109d46109cd610f9d565b8383611378565b5050565b6109e96109e3610f9d565b8361107c565b610a28576040517f08c379a0000000000000000000000000000000000000000000000000000000008152600401610a1f90612399565b60405180910390fd5b610a34848484846114e5565b50505050565b6060610a4582611541565b610a84576040517f08c379a0000000000000000000000000000000000000000000000000000000008152600401610a7b9061257a565b60405180910390fd5b60007f000000000000000000000000000000000000000000000000000000000000000073ffffffffffffffffffffffffffffffffffffffff1663feaf968c6040518163ffffffff1660e01b815260040160a06040518083038186803b158015610aec57600080fd5b505afa158015610b00573d6000803e3d6000fd5b505050506040513d601f19601f82011682018060405250810190610b249190612606565b505050915050600060078054610b399061214c565b80601f0160208091040260200160405190810160405280929190818152602001828054610b659061214c565b8015610bb25780601f10610b8757610100808354040283529160200191610bb2565b820191906000526020600020905b815481529060010190602001808311610b9557829003601f168201915b5050505050905060096000858152602001908152602001600020548212610c615760088054610be09061214c565b80601f0160208091040260200160405190810160405280929190818152602001828054610c0c9061214c565b8015610c595780601f10610c2e57610100808354040283529160200191610c59565b820191906000526020600020905b815481529060010190602001808311610c3c57829003601f168201915b505050505090505b610c696115ad565b610c9a610c7461044b565b83604051602001610c8692919061286f565b604051602081830303815290604052610d6f565b604051602001610cab92919061240c565b60405160208183030381529060405292505050919050565b60096020528060005260406000206000915090505481565b6000600560008473ffffffffffffffffffffffffffffffffffffffff1673ffffffffffffffffffffffffffffffffffffffff16815260200190815260200160002060008373ffffffffffffffffffffffffffffffffffffffff1673ffffffffffffffffffffffffffffffffffffffff16815260200190815260200160002060009054906101000a900460ff16905092915050565b6060600082511415610d9257604051806020016040528060008152509050610ee3565b6000604051806060016040528060408152602001612d966040913990506000600360028551610dc191906122d1565b610dcb91906128f9565b6004610dd7919061292a565b90506000602082610de891906122d1565b67ffffffffffffffff811115610e0157610e00611d58565b5b6040519080825280601f01601f191660200182016040528015610e335781602001600182028036833780820191505090505b509050818152600183018586518101602084015b81831015610ea2576003830192508251603f8160121c168501518253600182019150603f81600c1c168501518253600182019150603f8160061c168501518253600182019150603f8116850151825360018201915050610e47565b600389510660018114610ebc5760028114610ecc57610ed7565b613d3d60f01b6002830352610ed7565b603d60f81b60018303525b50505050508093505050505b919050565b60007f01ffc9a7000000000000000000000000000000000000000000000000000000007bffffffffffffffffffffffffffffffffffffffffffffffffffffffff1916827bffffffffffffffffffffffffffffffffffffffffffffffffffffffff1916149050919050565b610f5b81611541565b610f9a576040517f08c379a0000000000000000000000000000000000000000000000000000000008152600401610f919061247c565b60405180910390fd5b50565b600033905090565b816004600083815260200190815260200160002060006101000a81548173ffffffffffffffffffffffffffffffffffffffff021916908373ffffffffffffffffffffffffffffffffffffffff160217905550808273ffffffffffffffffffffffffffffffffffffffff16611018836107c6565b73ffffffffffffffffffffffffffffffffffffffff167f8c5be1e5ebec7d5bd14f71427d1e84f3dd0314c0f7b2291e5b200ac8c7c3b92560405160405180910390a45050565b6110788282604051806020016040528060008152506115ea565b5050565b600080611088836107c6565b90508073ffffffffffffffffffffffffffffffffffffffff168473ffffffffffffffffffffffffffffffffffffffff1614806110ca57506110c98185610cdb565b5b8061110857508373ffffffffffffffffffffffffffffffffffffffff166110f0846104dd565b73ffffffffffffffffffffffffffffffffffffffff16145b91505092915050565b8273ffffffffffffffffffffffffffffffffffffffff16611131826107c6565b73ffffffffffffffffffffffffffffffffffffffff1614611187576040517f08c379a000000000000000000000000000000000000000000000000000000000815260040161117e906129f6565b60405180910390fd5b600073ffffffffffffffffffffffffffffffffffffffff168273ffffffffffffffffffffffffffffffffffffffff1614156111f7576040517f08c379a00000000000000000000000000000000000000000000000000000000081526004016111ee90612a88565b60405180910390fd5b611202838383611645565b61120d600082610fa5565b6001600360008573ffffffffffffffffffffffffffffffffffffffff1673ffffffffffffffffffffffffffffffffffffffff168152602001908152602001600020600082825461125d9190612aa8565b925050819055506001600360008473ffffffffffffffffffffffffffffffffffffffff1673ffffffffffffffffffffffffffffffffffffffff16815260200190815260200160002060008282546112b491906122d1565b92505081905550816002600083815260200190815260200160002060006101000a81548173ffffffffffffffffffffffffffffffffffffffff021916908373ffffffffffffffffffffffffffffffffffffffff160217905550808273ffffffffffffffffffffffffffffffffffffffff168473ffffffffffffffffffffffffffffffffffffffff167fddf252ad1be2c89b69c2b068fc378daa952ba7f163c4a11628f55a4df523b3ef60405160405180910390a461137383838361164a565b505050565b8173ffffffffffffffffffffffffffffffffffffffff168373ffffffffffffffffffffffffffffffffffffffff1614156113e7576040517f08c379a00000000000000000000000000000000000000000000000000000000081526004016113de90612b28565b60405180910390fd5b80600560008573ffffffffffffffffffffffffffffffffffffffff1673ffffffffffffffffffffffffffffffffffffffff16815260200190815260200160002060008473ffffffffffffffffffffffffffffffffffffffff1673ffffffffffffffffffffffffffffffffffffffff16815260200190815260200160002060006101000a81548160ff0219169083151502179055508173ffffffffffffffffffffffffffffffffffffffff168373ffffffffffffffffffffffffffffffffffffffff167f17307eab39ab6107e8899845ad3d59bd9653f200f220920489ca2b5937696c31836040516114d89190611a97565b60405180910390a3505050565b6114f0848484611111565b6114fc8484848461164f565b61153b576040517f08c379a000000000000000000000000000000000000000000000000000000000815260040161153290612bba565b60405180910390fd5b50505050565b60008073ffffffffffffffffffffffffffffffffffffffff166002600084815260200190815260200160002060009054906101000a900473ffffffffffffffffffffffffffffffffffffffff1673ffffffffffffffffffffffffffffffffffffffff1614159050919050565b60606040518060400160405280601d81526020017f646174613a6170706c69636174696f6e2f6a736f6e3b6261736536342c000000815250905090565b6115f483836117e6565b611601600084848461164f565b611640576040517f08c379a000000000000000000000000000000000000000000000000000000000815260040161163790612bba565b60405180910390fd5b505050565b505050565b505050565b60006116708473ffffffffffffffffffffffffffffffffffffffff166119c0565b156117d9578373ffffffffffffffffffffffffffffffffffffffff1663150b7a02611699610f9d565b8786866040518563ffffffff1660e01b81526004016116bb9493929190612c2f565b602060405180830381600087803b1580156116d557600080fd5b505af192505050801561170657506040513d601f19601f820116820180604052508101906117039190612c90565b60015b611789573d8060008114611736576040519150601f19603f3d011682016040523d82523d6000602084013e61173b565b606091505b50600081511415611781576040517f08c379a000000000000000000000000000000000000000000000000000000000815260040161177890612bba565b60405180910390fd5b805181602001fd5b63150b7a0260e01b7bffffffffffffffffffffffffffffffffffffffffffffffffffffffff1916817bffffffffffffffffffffffffffffffffffffffffffffffffffffffff1916149150506117de565b600190505b949350505050565b600073ffffffffffffffffffffffffffffffffffffffff168273ffffffffffffffffffffffffffffffffffffffff161415611856576040517f08c379a000000000000000000000000000000000000000000000000000000000815260040161184d90612d09565b60405180910390fd5b61185f81611541565b1561189f576040517f08c379a000000000000000000000000000000000000000000000000000000000815260040161189690612d75565b60405180910390fd5b6118ab60008383611645565b6001600360008473ffffffffffffffffffffffffffffffffffffffff1673ffffffffffffffffffffffffffffffffffffffff16815260200190815260200160002060008282546118fb91906122d1565b92505081905550816002600083815260200190815260200160002060006101000a81548173ffffffffffffffffffffffffffffffffffffffff021916908373ffffffffffffffffffffffffffffffffffffffff160217905550808273ffffffffffffffffffffffffffffffffffffffff16600073ffffffffffffffffffffffffffffffffffffffff167fddf252ad1be2c89b69c2b068fc378daa952ba7f163c4a11628f55a4df523b3ef60405160405180910390a46119bc6000838361164a565b5050565b6000808273ffffffffffffffffffffffffffffffffffffffff163b119050919050565b6000604051905090565b600080fd5b600080fd5b60007fffffffff0000000000000000000000000000000000000000000000000000000082169050919050565b611a2c816119f7565b8114611a3757600080fd5b50565b600081359050611a4981611a23565b92915050565b600060208284031215611a6557611a646119ed565b5b6000611a7384828501611a3a565b91505092915050565b60008115159050919050565b611a9181611a7c565b82525050565b6000602082019050611aac6000830184611a88565b92915050565b600081519050919050565b600082825260208201905092915050565b60005b83811015611aec578082015181840152602081019050611ad1565b83811115611afb576000848401525b50505050565b6000601f19601f8301169050919050565b6000611b1d82611ab2565b611b278185611abd565b9350611b37818560208601611ace565b611b4081611b01565b840191505092915050565b60006020820190508181036000830152611b658184611b12565b905092915050565b6000819050919050565b611b8081611b6d565b8114611b8b57600080fd5b50565b600081359050611b9d81611b77565b92915050565b600060208284031215611bb957611bb86119ed565b5b6000611bc784828501611b8e565b91505092915050565b600073ffffffffffffffffffffffffffffffffffffffff82169050919050565b6000611bfb82611bd0565b9050919050565b611c0b81611bf0565b82525050565b6000602082019050611c266000830184611c02565b92915050565b611c3581611bf0565b8114611c4057600080fd5b50565b600081359050611c5281611c2c565b92915050565b60008060408385031215611c6f57611c6e6119ed565b5b6000611c7d85828601611c43565b9250506020611c8e85828601611b8e565b9150509250929050565b6000819050919050565b611cab81611c98565b8114611cb657600080fd5b50565b600081359050611cc881611ca2565b92915050565b600060208284031215611ce457611ce36119ed565b5b6000611cf284828501611cb9565b91505092915050565b600080600060608486031215611d1457611d136119ed565b5b6000611d2286828701611c43565b9350506020611d3386828701611c43565b9250506040611d4486828701611b8e565b9150509250925092565b600080fd5b600080fd5b7f4e487b7100000000000000000000000000000000000000000000000000000000600052604160045260246000fd5b611d9082611b01565b810181811067ffffffffffffffff82111715611daf57611dae611d58565b5b80604052505050565b6000611dc26119e3565b9050611dce8282611d87565b919050565b600067ffffffffffffffff821115611dee57611ded611d58565b5b611df782611b01565b9050602081019050919050565b82818337600083830152505050565b6000611e26611e2184611dd3565b611db8565b905082815260208101848484011115611e4257611e41611d53565b5b611e4d848285611e04565b509392505050565b600082601f830112611e6a57611e69611d4e565b5b8135611e7a848260208601611e13565b91505092915050565b600060208284031215611e9957611e986119ed565b5b600082013567ffffffffffffffff811115611eb757611eb66119f2565b5b611ec384828501611e55565b91505092915050565b600060208284031215611ee257611ee16119ed565b5b6000611ef084828501611c43565b91505092915050565b611f0281611b6d565b82525050565b6000602082019050611f1d6000830184611ef9565b92915050565b611f2c81611a7c565b8114611f3757600080fd5b50565b600081359050611f4981611f23565b92915050565b60008060408385031215611f6657611f656119ed565b5b6000611f7485828601611c43565b9250506020611f8585828601611f3a565b9150509250929050565b600067ffffffffffffffff821115611faa57611fa9611d58565b5b611fb382611b01565b9050602081019050919050565b6000611fd3611fce84611f8f565b611db8565b905082815260208101848484011115611fef57611fee611d53565b5b611ffa848285611e04565b509392505050565b600082601f83011261201757612016611d4e565b5b8135612027848260208601611fc0565b91505092915050565b6000806000806080858703121561204a576120496119ed565b5b600061205887828801611c43565b945050602061206987828801611c43565b935050604061207a87828801611b8e565b925050606085013567ffffffffffffffff81111561209b5761209a6119f2565b5b6120a787828801612002565b91505092959194509250565b6120bc81611c98565b82525050565b60006020820190506120d760008301846120b3565b92915050565b600080604083850312156120f4576120f36119ed565b5b600061210285828601611c43565b925050602061211385828601611c43565b9150509250929050565b7f4e487b7100000000000000000000000000000000000000000000000000000000600052602260045260246000fd5b6000600282049050600182168061216457607f821691505b602082108114156121785761217761211d565b5b50919050565b7f4552433732313a20617070726f76616c20746f2063757272656e74206f776e6560008201527f7200000000000000000000000000000000000000000000000000000000000000602082015250565b60006121da602183611abd565b91506121e58261217e565b604082019050919050565b60006020820190508181036000830152612209816121cd565b9050919050565b7f4552433732313a20617070726f76652063616c6c6572206973206e6f7420746f60008201527f6b656e206f776e6572206e6f7220617070726f76656420666f7220616c6c0000602082015250565b600061226c603e83611abd565b915061227782612210565b604082019050919050565b6000602082019050818103600083015261229b8161225f565b9050919050565b7f4e487b7100000000000000000000000000000000000000000000000000000000600052601160045260246000fd5b60006122dc82611b6d565b91506122e783611b6d565b9250827fffffffffffffffffffffffffffffffffffffffffffffffffffffffffffffffff0382111561231c5761231b6122a2565b5b828201905092915050565b7f4552433732313a2063616c6c6572206973206e6f7420746f6b656e206f776e6560008201527f72206e6f7220617070726f766564000000000000000000000000000000000000602082015250565b6000612383602e83611abd565b915061238e82612327565b604082019050919050565b600060208201905081810360008301526123b281612376565b9050919050565b600081905092915050565b60006123cf82611ab2565b6123d981856123b9565b93506123e9818560208601611ace565b80840191505092915050565b600061240182846123c4565b915081905092915050565b600061241882856123c4565b915061242482846123c4565b91508190509392505050565b7f4552433732313a20696e76616c696420746f6b656e2049440000000000000000600082015250565b6000612466601883611abd565b915061247182612430565b602082019050919050565b6000602082019050818103600083015261249581612459565b9050919050565b7f4552433732313a2061646472657373207a65726f206973206e6f74206120766160008201527f6c6964206f776e65720000000000000000000000000000000000000000000000602082015250565b60006124f8602983611abd565b91506125038261249c565b604082019050919050565b60006020820190508181036000830152612527816124eb565b9050919050565b7f55524920517565727920666f72206e6f6e206578697374656e7420746f6b656e600082015250565b6000612564602083611abd565b915061256f8261252e565b602082019050919050565b6000602082019050818103600083015261259381612557565b9050919050565b600069ffffffffffffffffffff82169050919050565b6125b98161259a565b81146125c457600080fd5b50565b6000815190506125d6816125b0565b92915050565b6000815190506125eb81611ca2565b92915050565b60008151905061260081611b77565b92915050565b600080600080600060a08688031215612622576126216119ed565b5b6000612630888289016125c7565b9550506020612641888289016125dc565b9450506040612652888289016125f1565b9350506060612663888289016125f1565b9250506080612674888289016125c7565b9150509295509295909350565b7f7b226e616d653a22000000000000000000000000000000000000000000000000600082015250565b60006126b76008836123b9565b91506126c282612681565b600882019050919050565b7f2200000000000000000000000000000000000000000000000000000000000000600082015250565b60006127036001836123b9565b915061270e826126cd565b600182019050919050565b7f226465736372697074696f6e223a22416e204e46542074686174206368616e6760008201527f6573206261736564206f6e20636861696e6c696e6b207072696365204665656460208201527f2121220000000000000000000000000000000000000000000000000000000000604082015250565b600061279b6043836123b9565b91506127a682612719565b604382019050919050565b7f2261747472696275746573223a5b7b2274726169745f74797065223a2022636f60008201527f6f6c6e657373222c3a76616c75653a3130307d5d2c22696d616765223a220000602082015250565b600061280d603e836123b9565b9150612818826127b1565b603e82019050919050565b7f227d000000000000000000000000000000000000000000000000000000000000600082015250565b60006128596002836123b9565b915061286482612823565b600282019050919050565b600061287a826126aa565b915061288682856123c4565b9150612891826126f6565b915061289c8261278e565b91506128a782612800565b91506128b382846123c4565b91506128be8261284c565b91508190509392505050565b7f4e487b7100000000000000000000000000000000000000000000000000000000600052601260045260246000fd5b600061290482611b6d565b915061290f83611b6d565b92508261291f5761291e6128ca565b5b828204905092915050565b600061293582611b6d565b915061294083611b6d565b9250817fffffffffffffffffffffffffffffffffffffffffffffffffffffffffffffffff0483118215151615612979576129786122a2565b5b828202905092915050565b7f4552433732313a207472616e736665722066726f6d20696e636f72726563742060008201527f6f776e6572000000000000000000000000000000000000000000000000000000602082015250565b60006129e0602583611abd565b91506129eb82612984565b604082019050919050565b60006020820190508181036000830152612a0f816129d3565b9050919050565b7f4552433732313a207472616e7366657220746f20746865207a65726f2061646460008201527f7265737300000000000000000000000000000000000000000000000000000000602082015250565b6000612a72602483611abd565b9150612a7d82612a16565b604082019050919050565b60006020820190508181036000830152612aa181612a65565b9050919050565b6000612ab382611b6d565b9150612abe83611b6d565b925082821015612ad157612ad06122a2565b5b828203905092915050565b7f4552433732313a20617070726f766520746f2063616c6c657200000000000000600082015250565b6000612b12601983611abd565b9150612b1d82612adc565b602082019050919050565b60006020820190508181036000830152612b4181612b05565b9050919050565b7f4552433732313a207472616e7366657220746f206e6f6e20455243373231526560008201527f63656976657220696d706c656d656e7465720000000000000000000000000000602082015250565b6000612ba4603283611abd565b9150612baf82612b48565b604082019050919050565b60006020820190508181036000830152612bd381612b97565b9050919050565b600081519050919050565b600082825260208201905092915050565b6000612c0182612bda565b612c0b8185612be5565b9350612c1b818560208601611ace565b612c2481611b01565b840191505092915050565b6000608082019050612c446000830187611c02565b612c516020830186611c02565b612c5e6040830185611ef9565b8181036060830152612c708184612bf6565b905095945050505050565b600081519050612c8a81611a23565b92915050565b600060208284031215612ca657612ca56119ed565b5b6000612cb484828501612c7b565b91505092915050565b7f4552433732313a206d696e7420746f20746865207a65726f2061646472657373600082015250565b6000612cf3602083611abd565b9150612cfe82612cbd565b602082019050919050565b60006020820190508181036000830152612d2281612ce6565b9050919050565b7f4552433732313a20746f6b656e20616c7265616479206d696e74656400000000600082015250565b6000612d5f601c83611abd565b9150612d6a82612d29565b602082019050919050565b60006020820190508181036000830152612d8e81612d52565b905091905056fe4142434445464748494a4b4c4d4e4f505152535455565758595a6162636465666768696a6b6c6d6e6f707172737475767778797a303132333435363738392b2fa26469706673582212206c8de9cc7c9a9f7656505f379ea895452802c5dd13bfc4a3114814321a3c83bf64736f6c634300080800334142434445464748494a4b4c4d4e4f505152535455565758595a6162636465666768696a6b6c6d6e6f707172737475767778797a303132333435363738392b2f",
  "linkReferences": {},
  "deployedLinkReferences": {}
}