{
  "_format": "hh-sol-artifact-1",
  "contractName": "DynamicSvgNft",
  "sourceName": "contracts/DynamicSvgNft.sol",
  "abi": [
    {
      "inputs": [
        {
          "internalType": "address",
          "name": "priceFeedAddress",
          "type": "address"
        },
        {
          "internalType": "string",
          "name": "lowSvg",
          "type": "string"
        },
        {
          "internalType": "string",
          "name": "highSvg",
          "type": "string"
        }
      ],
      "stateMutability": "nonpayable",
      "type": "constructor"
    },
    {
      "anonymous": false,
      "inputs": [
        {
          "indexed": true,
          "internalType": "address",
          "name": "owner",
          "type": "address"
        },
        {
          "indexed": true,
          "internalType": "address",
          "name": "approved",
          "type": "address"
        },
        {
          "indexed": true,
          "internalType": "uint256",
          "name": "tokenId",
          "type": "uint256"
        }
      ],
      "name": "Approval",
      "type": "event"
    },
    {
      "anonymous": false,
      "inputs": [
        {
          "indexed": true,
          "internalType": "address",
          "name": "owner",
          "type": "address"
        },
        {
          "indexed": true,
          "internalType": "address",
          "name": "operator",
          "type": "address"
        },
        {
          "indexed": false,
          "internalType": "bool",
          "name": "approved",
          "type": "bool"
        }
      ],
      "name": "ApprovalForAll",
      "type": "event"
    },
    {
      "anonymous": false,
      "inputs": [
        {
          "indexed": true,
          "internalType": "uint256",
          "name": "tokenId",
          "type": "uint256"
        },
        {
          "indexed": false,
          "internalType": "int256",
          "name": "highValue",
          "type": "int256"
        }
      ],
      "name": "CreatedNFT",
      "type": "event"
    },
    {
      "anonymous": false,
      "inputs": [
        {
          "indexed": true,
          "internalType": "address",
          "name": "from",
          "type": "address"
        },
        {
          "indexed": true,
          "internalType": "address",
          "name": "to",
          "type": "address"
        },
        {
          "indexed": true,
          "internalType": "uint256",
          "name": "tokenId",
          "type": "uint256"
        }
      ],
      "name": "Transfer",
      "type": "event"
    },
    {
      "inputs": [
        {
          "internalType": "address",
          "name": "to",
          "type": "address"
        },
        {
          "internalType": "uint256",
          "name": "tokenId",
          "type": "uint256"
        }
      ],
      "name": "approve",
      "outputs": [],
      "stateMutability": "nonpayable",
      "type": "function"
    },
    {
      "inputs": [
        {
          "internalType": "address",
          "name": "owner",
          "type": "address"
        }
      ],
      "name": "balanceOf",
      "outputs": [
        {
          "internalType": "uint256",
          "name": "",
          "type": "uint256"
        }
      ],
      "stateMutability": "view",
      "type": "function"
    },
    {
      "inputs": [
        {
          "internalType": "uint256",
          "name": "tokenId",
          "type": "uint256"
        }
      ],
      "name": "getApproved",
      "outputs": [
        {
          "internalType": "address",
          "name": "",
          "type": "address"
        }
      ],
      "stateMutability": "view",
      "type": "function"
    },
    {
      "inputs": [],
      "name": "getHighSVG",
      "outputs": [
        {
          "internalType": "string",
          "name": "",
          "type": "string"
        }
      ],
      "stateMutability": "view",
      "type": "function"
    },
    {
      "inputs": [],
      "name": "getLowSVG",
      "outputs": [
        {
          "internalType": "string",
          "name": "",
          "type": "string"
        }
      ],
      "stateMutability": "view",
      "type": "function"
    },
    {
      "inputs": [],
      "name": "getPriceFeed",
      "outputs": [
        {
          "internalType": "contract AggregatorV3Interface",
          "name": "",
          "type": "address"
        }
      ],
      "stateMutability": "view",
      "type": "function"
    },
    {
      "inputs": [],
      "name": "getTokenCounter",
      "outputs": [
        {
          "internalType": "uint256",
          "name": "",
          "type": "uint256"
        }
      ],
      "stateMutability": "view",
      "type": "function"
    },
    {
      "inputs": [
        {
          "internalType": "address",
          "name": "owner",
          "type": "address"
        },
        {
          "internalType": "address",
          "name": "operator",
          "type": "address"
        }
      ],
      "name": "isApprovedForAll",
      "outputs": [
        {
          "internalType": "bool",
          "name": "",
          "type": "bool"
        }
      ],
      "stateMutability": "view",
      "type": "function"
    },
    {
      "inputs": [
        {
          "internalType": "int256",
          "name": "highValue",
          "type": "int256"
        }
      ],
      "name": "mintNft",
      "outputs": [],
      "stateMutability": "nonpayable",
      "type": "function"
    },
    {
      "inputs": [],
      "name": "name",
      "outputs": [
        {
          "internalType": "string",
          "name": "",
          "type": "string"
        }
      ],
      "stateMutability": "view",
      "type": "function"
    },
    {
      "inputs": [
        {
          "internalType": "uint256",
          "name": "tokenId",
          "type": "uint256"
        }
      ],
      "name": "ownerOf",
      "outputs": [
        {
          "internalType": "address",
          "name": "",
          "type": "address"
        }
      ],
      "stateMutability": "view",
      "type": "function"
    },
    {
      "inputs": [
        {
          "internalType": "uint256",
          "name": "",
          "type": "uint256"
        }
      ],
      "name": "s_tokenIdToHighValue",
      "outputs": [
        {
          "internalType": "int256",
          "name": "",
          "type": "int256"
        }
      ],
      "stateMutability": "view",
      "type": "function"
    },
    {
      "inputs": [
        {
          "internalType": "address",
          "name": "from",
          "type": "address"
        },
        {
          "internalType": "address",
          "name": "to",
          "type": "address"
        },
        {
          "internalType": "uint256",
          "name": "tokenId",
          "type": "uint256"
        }
      ],
      "name": "safeTransferFrom",
      "outputs": [],
      "stateMutability": "nonpayable",
      "type": "function"
    },
    {
      "inputs": [
        {
          "internalType": "address",
          "name": "from",
          "type": "address"
        },
        {
          "internalType": "address",
          "name": "to",
          "type": "address"
        },
        {
          "internalType": "uint256",
          "name": "tokenId",
          "type": "uint256"
        },
        {
          "internalType": "bytes",
          "name": "data",
          "type": "bytes"
        }
      ],
      "name": "safeTransferFrom",
      "outputs": [],
      "stateMutability": "nonpayable",
      "type": "function"
    },
    {
      "inputs": [
        {
          "internalType": "address",
          "name": "operator",
          "type": "address"
        },
        {
          "internalType": "bool",
          "name": "approved",
          "type": "bool"
        }
      ],
      "name": "setApprovalForAll",
      "outputs": [],
      "stateMutability": "nonpayable",
      "type": "function"
    },
    {
      "inputs": [
        {
          "internalType": "bytes4",
          "name": "interfaceId",
          "type": "bytes4"
        }
      ],
      "name": "supportsInterface",
      "outputs": [
        {
          "internalType": "bool",
          "name": "",
          "type": "bool"
        }
      ],
      "stateMutability": "view",
      "type": "function"
    },
    {
      "inputs": [
        {
          "internalType": "string",
          "name": "svg",
          "type": "string"
        }
      ],
      "name": "svgToImageURI",
      "outputs": [
        {
          "internalType": "string",
          "name": "",
          "type": "string"
        }
      ],
      "stateMutability": "pure",
      "type": "function"
    },
    {
      "inputs": [],
      "name": "symbol",
      "outputs": [
        {
          "internalType": "string",
          "name": "",
          "type": "string"
        }
      ],
      "stateMutability": "view",
      "type": "function"
    },
    {
      "inputs": [
        {
          "internalType": "uint256",
          "name": "tokenId",
          "type": "uint256"
        }
      ],
      "name": "tokenURI",
      "outputs": [
        {
          "internalType": "string",
          "name": "",
          "type": "string"
        }
      ],
      "stateMutability": "view",
      "type": "function"
    },
    {
      "inputs": [
        {
          "internalType": "address",
          "name": "from",
          "type": "address"
        },
        {
          "internalType": "address",
          "name": "to",
          "type": "address"
        },
        {
          "internalType": "uint256",
          "name": "tokenId",
          "type": "uint256"
        }
      ],
      "name": "transferFrom",
      "outputs": [],
      "stateMutability": "nonpayable",
      "type": "function"
    }
  ],
  "bytecode": "0x60a06040523480156200001157600080fd5b5060405162003a1938038062003a1983398181016040528101906200003791906200064f565b6040518060400160405280600d81526020017f44796e616d69635376674e6674000000000000000000000000000000000000008152506040518060400160405280600381526020017f44534e00000000000000000000000000000000000000000000000000000000008152508160009080519060200190620000bb9291906200039d565b508060019080519060200190620000d49291906200039d565b50505060006006819055508273ffffffffffffffffffffffffffffffffffffffff1660808173ffffffffffffffffffffffffffffffffffffffff1660601b8152505062000127826200017160201b60201c565b600790805190602001906200013e9291906200039d565b5062000150816200017160201b60201c565b60089080519060200190620001679291906200039d565b505050506200093a565b60606000620001ac836040516020016200018c919062000736565b6040516020818303038152906040526200020f60201b62000f631760201c565b90506040518060400160405280601a81526020017f646174613a696d6167652f7376672b786d6c3b6261736536342c00000000000081525081604051602001620001f89291906200074f565b604051602081830303815290604052915050919050565b6060600082511415620002345760405180602001604052806000815250905062000398565b6000604051806060016040528060408152602001620039d96040913990506000600360028551620002669190620007b0565b6200027291906200083c565b600462000280919062000874565b90506000602082620002939190620007b0565b67ffffffffffffffff811115620002af57620002ae620004e1565b5b6040519080825280601f01601f191660200182016040528015620002e25781602001600182028036833780820191505090505b509050818152600183018586518101602084015b8183101562000353576003830192508251603f8160121c168501518253600182019150603f81600c1c168501518253600182019150603f8160061c168501518253600182019150603f8116850151825360018201915050620002f6565b60038951066001811462000370576002811462000381576200038c565b613d3d60f01b60028303526200038c565b603d60f81b60018303525b50505050508093505050505b919050565b828054620003ab9062000904565b90600052602060002090601f016020900481019282620003cf57600085556200041b565b82601f10620003ea57805160ff19168380011785556200041b565b828001600101855582156200041b579182015b828111156200041a578251825591602001919060010190620003fd565b5b5090506200042a91906200042e565b5090565b5b80821115620004495760008160009055506001016200042f565b5090565b6000604051905090565b600080fd5b600080fd5b600073ffffffffffffffffffffffffffffffffffffffff82169050919050565b60006200048e8262000461565b9050919050565b620004a08162000481565b8114620004ac57600080fd5b50565b600081519050620004c08162000495565b92915050565b600080fd5b600080fd5b6000601f19601f8301169050919050565b7f4e487b7100000000000000000000000000000000000000000000000000000000600052604160045260246000fd5b6200051b82620004d0565b810181811067ffffffffffffffff821117156200053d576200053c620004e1565b5b80604052505050565b6000620005526200044d565b905062000560828262000510565b919050565b600067ffffffffffffffff821115620005835762000582620004e1565b5b6200058e82620004d0565b9050602081019050919050565b60005b83811015620005bb5780820151818401526020810190506200059e565b83811115620005cb576000848401525b50505050565b6000620005e8620005e28462000565565b62000546565b905082815260208101848484011115620006075762000606620004cb565b5b620006148482856200059b565b509392505050565b600082601f830112620006345762000633620004c6565b5b815162000646848260208601620005d1565b91505092915050565b6000806000606084860312156200066b576200066a62000457565b5b60006200067b86828701620004af565b935050602084015167ffffffffffffffff8111156200069f576200069e6200045c565b5b620006ad868287016200061c565b925050604084015167ffffffffffffffff811115620006d157620006d06200045c565b5b620006df868287016200061c565b9150509250925092565b600081519050919050565b600081905092915050565b60006200070c82620006e9565b620007188185620006f4565b93506200072a8185602086016200059b565b80840191505092915050565b6000620007448284620006ff565b915081905092915050565b60006200075d8285620006ff565b91506200076b8284620006ff565b91508190509392505050565b6000819050919050565b7f4e487b7100000000000000000000000000000000000000000000000000000000600052601160045260246000fd5b6000620007bd8262000777565b9150620007ca8362000777565b9250827fffffffffffffffffffffffffffffffffffffffffffffffffffffffffffffffff0382111562000802576200080162000781565b5b828201905092915050565b7f4e487b7100000000000000000000000000000000000000000000000000000000600052601260045260246000fd5b6000620008498262000777565b9150620008568362000777565b9250826200086957620008686200080d565b5b828204905092915050565b6000620008818262000777565b91506200088e8362000777565b9250817fffffffffffffffffffffffffffffffffffffffffffffffffffffffffffffffff0483118215151615620008ca57620008c962000781565b5b828202905092915050565b7f4e487b7100000000000000000000000000000000000000000000000000000000600052602260045260246000fd5b600060028204905060018216806200091d57607f821691505b60208210811415620009345762000933620008d5565b5b50919050565b60805160601c6130796200096060003960008181610b000152610bea01526130796000f3fe608060405234801561001057600080fd5b506004361061012c5760003560e01c806370a08231116100ad578063b88d4fde11610071578063b88d4fde14610343578063c87b56dd1461035f578063e425aded1461038f578063e985e9c5146103bf578063ed28a122146103ef5761012c565b806370a082311461029d57806376f6056b146102cd57806395d89b41146102eb5780639e87a5cd14610309578063a22cb465146103275761012c565b806323b872dd116100f457806323b872dd146101e757806330d871c61461020357806342842e0e146102335780636352211e1461024f5780636e02007d1461027f5761012c565b806301ffc9a71461013157806306fdde0314610161578063081812fc1461017f578063095ea7b3146101af5780631e930812146101cb575b600080fd5b61014b60048036038101906101469190611c43565b61040d565b6040516101589190611c8b565b60405180910390f35b6101696104ef565b6040516101769190611d3f565b60405180910390f35b61019960048036038101906101949190611d97565b610581565b6040516101a69190611e05565b60405180910390f35b6101c960048036038101906101c49190611e4c565b6105c7565b005b6101e560048036038101906101e09190611ec2565b6106df565b005b61020160048036038101906101fc9190611eef565b610757565b005b61021d60048036038101906102189190612077565b6107b7565b60405161022a9190611d3f565b60405180910390f35b61024d60048036038101906102489190611eef565b610844565b005b61026960048036038101906102649190611d97565b610864565b6040516102769190611e05565b60405180910390f35b610287610916565b60405161029491906120cf565b60405180910390f35b6102b760048036038101906102b291906120ea565b610920565b6040516102c491906120cf565b60405180910390f35b6102d56109d8565b6040516102e29190611d3f565b60405180910390f35b6102f3610a6a565b6040516103009190611d3f565b60405180910390f35b610311610afc565b60405161031e9190612176565b60405180910390f35b610341600480360381019061033c91906121bd565b610b24565b005b61035d6004803603810190610358919061229e565b610b3a565b005b61037960048036038101906103749190611d97565b610b9c565b6040516103869190611d3f565b60405180910390f35b6103a960048036038101906103a49190611d97565b610e25565b6040516103b69190612330565b60405180910390f35b6103d960048036038101906103d4919061234b565b610e3d565b6040516103e69190611c8b565b60405180910390f35b6103f7610ed1565b6040516104049190611d3f565b60405180910390f35b60007f80ac58cd000000000000000000000000000000000000000000000000000000007bffffffffffffffffffffffffffffffffffffffffffffffffffffffff1916827bffffffffffffffffffffffffffffffffffffffffffffffffffffffff191614806104d857507f5b5e139f000000000000000000000000000000000000000000000000000000007bffffffffffffffffffffffffffffffffffffffffffffffffffffffff1916827bffffffffffffffffffffffffffffffffffffffffffffffffffffffff1916145b806104e857506104e7826110dc565b5b9050919050565b6060600080546104fe906123ba565b80601f016020809104026020016040519081016040528092919081815260200182805461052a906123ba565b80156105775780601f1061054c57610100808354040283529160200191610577565b820191906000526020600020905b81548152906001019060200180831161055a57829003601f168201915b5050505050905090565b600061058c82611146565b6004600083815260200190815260200160002060009054906101000a900473ffffffffffffffffffffffffffffffffffffffff169050919050565b60006105d282610864565b90508073ffffffffffffffffffffffffffffffffffffffff168373ffffffffffffffffffffffffffffffffffffffff161415610643576040517f08c379a000000000000000000000000000000000000000000000000000000000815260040161063a9061245e565b60405180910390fd5b8073ffffffffffffffffffffffffffffffffffffffff16610662611191565b73ffffffffffffffffffffffffffffffffffffffff16148061069157506106908161068b611191565b610e3d565b5b6106d0576040517f08c379a00000000000000000000000000000000000000000000000000000000081526004016106c7906124f0565b60405180910390fd5b6106da8383611199565b505050565b806009600060065481526020019081526020016000208190555061070533600654611252565b6001600654610714919061253f565b6006819055506006547f882d3b5a729a8bb95cf6c0083c99b42ecd9637123d4425bd7b768877fd8af8b08260405161074c9190612330565b60405180910390a250565b610768610762611191565b82611270565b6107a7576040517f08c379a000000000000000000000000000000000000000000000000000000000815260040161079e90612607565b60405180910390fd5b6107b2838383611305565b505050565b606060006107e3836040516020016107cf9190612663565b604051602081830303815290604052610f63565b90506040518060400160405280601a81526020017f646174613a696d6167652f7376672b786d6c3b6261736536342c0000000000008152508160405160200161082d92919061267a565b604051602081830303815290604052915050919050565b61085f83838360405180602001604052806000815250610b3a565b505050565b6000806002600084815260200190815260200160002060009054906101000a900473ffffffffffffffffffffffffffffffffffffffff169050600073ffffffffffffffffffffffffffffffffffffffff168173ffffffffffffffffffffffffffffffffffffffff16141561090d576040517f08c379a0000000000000000000000000000000000000000000000000000000008152600401610904906126ea565b60405180910390fd5b80915050919050565b6000600654905090565b60008073ffffffffffffffffffffffffffffffffffffffff168273ffffffffffffffffffffffffffffffffffffffff161415610991576040517f08c379a00000000000000000000000000000000000000000000000000000000081526004016109889061277c565b60405180910390fd5b600360008373ffffffffffffffffffffffffffffffffffffffff1673ffffffffffffffffffffffffffffffffffffffff168152602001908152602001600020549050919050565b6060600880546109e7906123ba565b80601f0160208091040260200160405190810160405280929190818152602001828054610a13906123ba565b8015610a605780601f10610a3557610100808354040283529160200191610a60565b820191906000526020600020905b815481529060010190602001808311610a4357829003601f168201915b5050505050905090565b606060018054610a79906123ba565b80601f0160208091040260200160405190810160405280929190818152602001828054610aa5906123ba565b8015610af25780601f10610ac757610100808354040283529160200191610af2565b820191906000526020600020905b815481529060010190602001808311610ad557829003601f168201915b5050505050905090565b60007f0000000000000000000000000000000000000000000000000000000000000000905090565b610b36610b2f611191565b838361156c565b5050565b610b4b610b45611191565b83611270565b610b8a576040517f08c379a0000000000000000000000000000000000000000000000000000000008152600401610b8190612607565b60405180910390fd5b610b96848484846116d9565b50505050565b6060610ba782611735565b610be6576040517f08c379a0000000000000000000000000000000000000000000000000000000008152600401610bdd906127e8565b60405180910390fd5b60007f000000000000000000000000000000000000000000000000000000000000000073ffffffffffffffffffffffffffffffffffffffff1663feaf968c6040518163ffffffff1660e01b815260040160a06040518083038186803b158015610c4e57600080fd5b505afa158015610c62573d6000803e3d6000fd5b505050506040513d601f19601f82011682018060405250810190610c869190612874565b505050915050600060078054610c9b906123ba565b80601f0160208091040260200160405190810160405280929190818152602001828054610cc7906123ba565b8015610d145780601f10610ce957610100808354040283529160200191610d14565b820191906000526020600020905b815481529060010190602001808311610cf757829003601f168201915b5050505050905060096000858152602001908152602001600020548212610dc35760088054610d42906123ba565b80601f0160208091040260200160405190810160405280929190818152602001828054610d6e906123ba565b8015610dbb5780601f10610d9057610100808354040283529160200191610dbb565b820191906000526020600020905b815481529060010190602001808311610d9e57829003601f168201915b505050505090505b610dcb6117a1565b610dfc610dd66104ef565b83604051602001610de8929190612add565b604051602081830303815290604052610f63565b604051602001610e0d92919061267a565b60405160208183030381529060405292505050919050565b60096020528060005260406000206000915090505481565b6000600560008473ffffffffffffffffffffffffffffffffffffffff1673ffffffffffffffffffffffffffffffffffffffff16815260200190815260200160002060008373ffffffffffffffffffffffffffffffffffffffff1673ffffffffffffffffffffffffffffffffffffffff16815260200190815260200160002060009054906101000a900460ff16905092915050565b606060078054610ee0906123ba565b80601f0160208091040260200160405190810160405280929190818152602001828054610f0c906123ba565b8015610f595780601f10610f2e57610100808354040283529160200191610f59565b820191906000526020600020905b815481529060010190602001808311610f3c57829003601f168201915b5050505050905090565b6060600082511415610f86576040518060200160405280600081525090506110d7565b60006040518060600160405280604081526020016130046040913990506000600360028551610fb5919061253f565b610fbf9190612b67565b6004610fcb9190612b98565b90506000602082610fdc919061253f565b67ffffffffffffffff811115610ff557610ff4611f4c565b5b6040519080825280601f01601f1916602001820160405280156110275781602001600182028036833780820191505090505b509050818152600183018586518101602084015b81831015611096576003830192508251603f8160121c168501518253600182019150603f81600c1c168501518253600182019150603f8160061c168501518253600182019150603f811685015182536001820191505061103b565b6003895106600181146110b057600281146110c0576110cb565b613d3d60f01b60028303526110cb565b603d60f81b60018303525b50505050508093505050505b919050565b60007f01ffc9a7000000000000000000000000000000000000000000000000000000007bffffffffffffffffffffffffffffffffffffffffffffffffffffffff1916827bffffffffffffffffffffffffffffffffffffffffffffffffffffffff1916149050919050565b61114f81611735565b61118e576040517f08c379a0000000000000000000000000000000000000000000000000000000008152600401611185906126ea565b60405180910390fd5b50565b600033905090565b816004600083815260200190815260200160002060006101000a81548173ffffffffffffffffffffffffffffffffffffffff021916908373ffffffffffffffffffffffffffffffffffffffff160217905550808273ffffffffffffffffffffffffffffffffffffffff1661120c83610864565b73ffffffffffffffffffffffffffffffffffffffff167f8c5be1e5ebec7d5bd14f71427d1e84f3dd0314c0f7b2291e5b200ac8c7c3b92560405160405180910390a45050565b61126c8282604051806020016040528060008152506117de565b5050565b60008061127c83610864565b90508073ffffffffffffffffffffffffffffffffffffffff168473ffffffffffffffffffffffffffffffffffffffff1614806112be57506112bd8185610e3d565b5b806112fc57508373ffffffffffffffffffffffffffffffffffffffff166112e484610581565b73ffffffffffffffffffffffffffffffffffffffff16145b91505092915050565b8273ffffffffffffffffffffffffffffffffffffffff1661132582610864565b73ffffffffffffffffffffffffffffffffffffffff161461137b576040517f08c379a000000000000000000000000000000000000000000000000000000000815260040161137290612c64565b60405180910390fd5b600073ffffffffffffffffffffffffffffffffffffffff168273ffffffffffffffffffffffffffffffffffffffff1614156113eb576040517f08c379a00000000000000000000000000000000000000000000000000000000081526004016113e290612cf6565b60405180910390fd5b6113f6838383611839565b611401600082611199565b6001600360008573ffffffffffffffffffffffffffffffffffffffff1673ffffffffffffffffffffffffffffffffffffffff16815260200190815260200160002060008282546114519190612d16565b925050819055506001600360008473ffffffffffffffffffffffffffffffffffffffff1673ffffffffffffffffffffffffffffffffffffffff16815260200190815260200160002060008282546114a8919061253f565b92505081905550816002600083815260200190815260200160002060006101000a81548173ffffffffffffffffffffffffffffffffffffffff021916908373ffffffffffffffffffffffffffffffffffffffff160217905550808273ffffffffffffffffffffffffffffffffffffffff168473ffffffffffffffffffffffffffffffffffffffff167fddf252ad1be2c89b69c2b068fc378daa952ba7f163c4a11628f55a4df523b3ef60405160405180910390a461156783838361183e565b505050565b8173ffffffffffffffffffffffffffffffffffffffff168373ffffffffffffffffffffffffffffffffffffffff1614156115db576040517f08c379a00000000000000000000000000000000000000000000000000000000081526004016115d290612d96565b60405180910390fd5b80600560008573ffffffffffffffffffffffffffffffffffffffff1673ffffffffffffffffffffffffffffffffffffffff16815260200190815260200160002060008473ffffffffffffffffffffffffffffffffffffffff1673ffffffffffffffffffffffffffffffffffffffff16815260200190815260200160002060006101000a81548160ff0219169083151502179055508173ffffffffffffffffffffffffffffffffffffffff168373ffffffffffffffffffffffffffffffffffffffff167f17307eab39ab6107e8899845ad3d59bd9653f200f220920489ca2b5937696c31836040516116cc9190611c8b565b60405180910390a3505050565b6116e4848484611305565b6116f084848484611843565b61172f576040517f08c379a000000000000000000000000000000000000000000000000000000000815260040161172690612e28565b60405180910390fd5b50505050565b60008073ffffffffffffffffffffffffffffffffffffffff166002600084815260200190815260200160002060009054906101000a900473ffffffffffffffffffffffffffffffffffffffff1673ffffffffffffffffffffffffffffffffffffffff1614159050919050565b60606040518060400160405280601d81526020017f646174613a6170706c69636174696f6e2f6a736f6e3b6261736536342c000000815250905090565b6117e883836119da565b6117f56000848484611843565b611834576040517f08c379a000000000000000000000000000000000000000000000000000000000815260040161182b90612e28565b60405180910390fd5b505050565b505050565b505050565b60006118648473ffffffffffffffffffffffffffffffffffffffff16611bb4565b156119cd578373ffffffffffffffffffffffffffffffffffffffff1663150b7a0261188d611191565b8786866040518563ffffffff1660e01b81526004016118af9493929190612e9d565b602060405180830381600087803b1580156118c957600080fd5b505af19250505080156118fa57506040513d601f19601f820116820180604052508101906118f79190612efe565b60015b61197d573d806000811461192a576040519150601f19603f3d011682016040523d82523d6000602084013e61192f565b606091505b50600081511415611975576040517f08c379a000000000000000000000000000000000000000000000000000000000815260040161196c90612e28565b60405180910390fd5b805181602001fd5b63150b7a0260e01b7bffffffffffffffffffffffffffffffffffffffffffffffffffffffff1916817bffffffffffffffffffffffffffffffffffffffffffffffffffffffff1916149150506119d2565b600190505b949350505050565b600073ffffffffffffffffffffffffffffffffffffffff168273ffffffffffffffffffffffffffffffffffffffff161415611a4a576040517f08c379a0000000000000000000000000000000000000000000000000000000008152600401611a4190612f77565b60405180910390fd5b611a5381611735565b15611a93576040517f08c379a0000000000000000000000000000000000000000000000000000000008152600401611a8a90612fe3565b60405180910390fd5b611a9f60008383611839565b6001600360008473ffffffffffffffffffffffffffffffffffffffff1673ffffffffffffffffffffffffffffffffffffffff1681526020019081526020016000206000828254611aef919061253f565b92505081905550816002600083815260200190815260200160002060006101000a81548173ffffffffffffffffffffffffffffffffffffffff021916908373ffffffffffffffffffffffffffffffffffffffff160217905550808273ffffffffffffffffffffffffffffffffffffffff16600073ffffffffffffffffffffffffffffffffffffffff167fddf252ad1be2c89b69c2b068fc378daa952ba7f163c4a11628f55a4df523b3ef60405160405180910390a4611bb06000838361183e565b5050565b6000808273ffffffffffffffffffffffffffffffffffffffff163b119050919050565b6000604051905090565b600080fd5b600080fd5b60007fffffffff0000000000000000000000000000000000000000000000000000000082169050919050565b611c2081611beb565b8114611c2b57600080fd5b50565b600081359050611c3d81611c17565b92915050565b600060208284031215611c5957611c58611be1565b5b6000611c6784828501611c2e565b91505092915050565b60008115159050919050565b611c8581611c70565b82525050565b6000602082019050611ca06000830184611c7c565b92915050565b600081519050919050565b600082825260208201905092915050565b60005b83811015611ce0578082015181840152602081019050611cc5565b83811115611cef576000848401525b50505050565b6000601f19601f8301169050919050565b6000611d1182611ca6565b611d1b8185611cb1565b9350611d2b818560208601611cc2565b611d3481611cf5565b840191505092915050565b60006020820190508181036000830152611d598184611d06565b905092915050565b6000819050919050565b611d7481611d61565b8114611d7f57600080fd5b50565b600081359050611d9181611d6b565b92915050565b600060208284031215611dad57611dac611be1565b5b6000611dbb84828501611d82565b91505092915050565b600073ffffffffffffffffffffffffffffffffffffffff82169050919050565b6000611def82611dc4565b9050919050565b611dff81611de4565b82525050565b6000602082019050611e1a6000830184611df6565b92915050565b611e2981611de4565b8114611e3457600080fd5b50565b600081359050611e4681611e20565b92915050565b60008060408385031215611e6357611e62611be1565b5b6000611e7185828601611e37565b9250506020611e8285828601611d82565b9150509250929050565b6000819050919050565b611e9f81611e8c565b8114611eaa57600080fd5b50565b600081359050611ebc81611e96565b92915050565b600060208284031215611ed857611ed7611be1565b5b6000611ee684828501611ead565b91505092915050565b600080600060608486031215611f0857611f07611be1565b5b6000611f1686828701611e37565b9350506020611f2786828701611e37565b9250506040611f3886828701611d82565b9150509250925092565b600080fd5b600080fd5b7f4e487b7100000000000000000000000000000000000000000000000000000000600052604160045260246000fd5b611f8482611cf5565b810181811067ffffffffffffffff82111715611fa357611fa2611f4c565b5b80604052505050565b6000611fb6611bd7565b9050611fc28282611f7b565b919050565b600067ffffffffffffffff821115611fe257611fe1611f4c565b5b611feb82611cf5565b9050602081019050919050565b82818337600083830152505050565b600061201a61201584611fc7565b611fac565b90508281526020810184848401111561203657612035611f47565b5b612041848285611ff8565b509392505050565b600082601f83011261205e5761205d611f42565b5b813561206e848260208601612007565b91505092915050565b60006020828403121561208d5761208c611be1565b5b600082013567ffffffffffffffff8111156120ab576120aa611be6565b5b6120b784828501612049565b91505092915050565b6120c981611d61565b82525050565b60006020820190506120e460008301846120c0565b92915050565b600060208284031215612100576120ff611be1565b5b600061210e84828501611e37565b91505092915050565b6000819050919050565b600061213c61213761213284611dc4565b612117565b611dc4565b9050919050565b600061214e82612121565b9050919050565b600061216082612143565b9050919050565b61217081612155565b82525050565b600060208201905061218b6000830184612167565b92915050565b61219a81611c70565b81146121a557600080fd5b50565b6000813590506121b781612191565b92915050565b600080604083850312156121d4576121d3611be1565b5b60006121e285828601611e37565b92505060206121f3858286016121a8565b9150509250929050565b600067ffffffffffffffff82111561221857612217611f4c565b5b61222182611cf5565b9050602081019050919050565b600061224161223c846121fd565b611fac565b90508281526020810184848401111561225d5761225c611f47565b5b612268848285611ff8565b509392505050565b600082601f83011261228557612284611f42565b5b813561229584826020860161222e565b91505092915050565b600080600080608085870312156122b8576122b7611be1565b5b60006122c687828801611e37565b94505060206122d787828801611e37565b93505060406122e887828801611d82565b925050606085013567ffffffffffffffff81111561230957612308611be6565b5b61231587828801612270565b91505092959194509250565b61232a81611e8c565b82525050565b60006020820190506123456000830184612321565b92915050565b6000806040838503121561236257612361611be1565b5b600061237085828601611e37565b925050602061238185828601611e37565b9150509250929050565b7f4e487b7100000000000000000000000000000000000000000000000000000000600052602260045260246000fd5b600060028204905060018216806123d257607f821691505b602082108114156123e6576123e561238b565b5b50919050565b7f4552433732313a20617070726f76616c20746f2063757272656e74206f776e6560008201527f7200000000000000000000000000000000000000000000000000000000000000602082015250565b6000612448602183611cb1565b9150612453826123ec565b604082019050919050565b600060208201905081810360008301526124778161243b565b9050919050565b7f4552433732313a20617070726f76652063616c6c6572206973206e6f7420746f60008201527f6b656e206f776e6572206e6f7220617070726f76656420666f7220616c6c0000602082015250565b60006124da603e83611cb1565b91506124e58261247e565b604082019050919050565b60006020820190508181036000830152612509816124cd565b9050919050565b7f4e487b7100000000000000000000000000000000000000000000000000000000600052601160045260246000fd5b600061254a82611d61565b915061255583611d61565b9250827fffffffffffffffffffffffffffffffffffffffffffffffffffffffffffffffff0382111561258a57612589612510565b5b828201905092915050565b7f4552433732313a2063616c6c6572206973206e6f7420746f6b656e206f776e6560008201527f72206e6f7220617070726f766564000000000000000000000000000000000000602082015250565b60006125f1602e83611cb1565b91506125fc82612595565b604082019050919050565b60006020820190508181036000830152612620816125e4565b9050919050565b600081905092915050565b600061263d82611ca6565b6126478185612627565b9350612657818560208601611cc2565b80840191505092915050565b600061266f8284612632565b915081905092915050565b60006126868285612632565b91506126928284612632565b91508190509392505050565b7f4552433732313a20696e76616c696420746f6b656e2049440000000000000000600082015250565b60006126d4601883611cb1565b91506126df8261269e565b602082019050919050565b60006020820190508181036000830152612703816126c7565b9050919050565b7f4552433732313a2061646472657373207a65726f206973206e6f74206120766160008201527f6c6964206f776e65720000000000000000000000000000000000000000000000602082015250565b6000612766602983611cb1565b91506127718261270a565b604082019050919050565b6000602082019050818103600083015261279581612759565b9050919050565b7f55524920517565727920666f72206e6f6e206578697374656e7420746f6b656e600082015250565b60006127d2602083611cb1565b91506127dd8261279c565b602082019050919050565b60006020820190508181036000830152612801816127c5565b9050919050565b600069ffffffffffffffffffff82169050919050565b61282781612808565b811461283257600080fd5b50565b6000815190506128448161281e565b92915050565b60008151905061285981611e96565b92915050565b60008151905061286e81611d6b565b92915050565b600080600080600060a086880312156128905761288f611be1565b5b600061289e88828901612835565b95505060206128af8882890161284a565b94505060406128c08882890161285f565b93505060606128d18882890161285f565b92505060806128e288828901612835565b9150509295509295909350565b7f7b226e616d653a22000000000000000000000000000000000000000000000000600082015250565b6000612925600883612627565b9150612930826128ef565b600882019050919050565b7f2200000000000000000000000000000000000000000000000000000000000000600082015250565b6000612971600183612627565b915061297c8261293b565b600182019050919050565b7f226465736372697074696f6e223a22416e204e46542074686174206368616e6760008201527f6573206261736564206f6e20636861696e6c696e6b207072696365204665656460208201527f2121220000000000000000000000000000000000000000000000000000000000604082015250565b6000612a09604383612627565b9150612a1482612987565b604382019050919050565b7f2261747472696275746573223a5b7b2274726169745f74797065223a2022636f60008201527f6f6c6e657373222c3a76616c75653a3130307d5d2c22696d616765223a220000602082015250565b6000612a7b603e83612627565b9150612a8682612a1f565b603e82019050919050565b7f227d000000000000000000000000000000000000000000000000000000000000600082015250565b6000612ac7600283612627565b9150612ad282612a91565b600282019050919050565b6000612ae882612918565b9150612af48285612632565b9150612aff82612964565b9150612b0a826129fc565b9150612b1582612a6e565b9150612b218284612632565b9150612b2c82612aba565b91508190509392505050565b7f4e487b7100000000000000000000000000000000000000000000000000000000600052601260045260246000fd5b6000612b7282611d61565b9150612b7d83611d61565b925082612b8d57612b8c612b38565b5b828204905092915050565b6000612ba382611d61565b9150612bae83611d61565b9250817fffffffffffffffffffffffffffffffffffffffffffffffffffffffffffffffff0483118215151615612be757612be6612510565b5b828202905092915050565b7f4552433732313a207472616e736665722066726f6d20696e636f72726563742060008201527f6f776e6572000000000000000000000000000000000000000000000000000000602082015250565b6000612c4e602583611cb1565b9150612c5982612bf2565b604082019050919050565b60006020820190508181036000830152612c7d81612c41565b9050919050565b7f4552433732313a207472616e7366657220746f20746865207a65726f2061646460008201527f7265737300000000000000000000000000000000000000000000000000000000602082015250565b6000612ce0602483611cb1565b9150612ceb82612c84565b604082019050919050565b60006020820190508181036000830152612d0f81612cd3565b9050919050565b6000612d2182611d61565b9150612d2c83611d61565b925082821015612d3f57612d3e612510565b5b828203905092915050565b7f4552433732313a20617070726f766520746f2063616c6c657200000000000000600082015250565b6000612d80601983611cb1565b9150612d8b82612d4a565b602082019050919050565b60006020820190508181036000830152612daf81612d73565b9050919050565b7f4552433732313a207472616e7366657220746f206e6f6e20455243373231526560008201527f63656976657220696d706c656d656e7465720000000000000000000000000000602082015250565b6000612e12603283611cb1565b9150612e1d82612db6565b604082019050919050565b60006020820190508181036000830152612e4181612e05565b9050919050565b600081519050919050565b600082825260208201905092915050565b6000612e6f82612e48565b612e798185612e53565b9350612e89818560208601611cc2565b612e9281611cf5565b840191505092915050565b6000608082019050612eb26000830187611df6565b612ebf6020830186611df6565b612ecc60408301856120c0565b8181036060830152612ede8184612e64565b905095945050505050565b600081519050612ef881611c17565b92915050565b600060208284031215612f1457612f13611be1565b5b6000612f2284828501612ee9565b91505092915050565b7f4552433732313a206d696e7420746f20746865207a65726f2061646472657373600082015250565b6000612f61602083611cb1565b9150612f6c82612f2b565b602082019050919050565b60006020820190508181036000830152612f9081612f54565b9050919050565b7f4552433732313a20746f6b656e20616c7265616479206d696e74656400000000600082015250565b6000612fcd601c83611cb1565b9150612fd882612f97565b602082019050919050565b60006020820190508181036000830152612ffc81612fc0565b905091905056fe4142434445464748494a4b4c4d4e4f505152535455565758595a6162636465666768696a6b6c6d6e6f707172737475767778797a303132333435363738392b2fa264697066735822122069004289fcfa34aa3162722a4c6f0aae4e3e1736dfb717d99d868844334e0d6864736f6c634300080800334142434445464748494a4b4c4d4e4f505152535455565758595a6162636465666768696a6b6c6d6e6f707172737475767778797a303132333435363738392b2f",
  "linkReferences": {},
  "deployedLinkReferences": {}
}